:020000040800F2
:10000000A004002089010008430400083B04000804
:100010003F04000871020008770C0008000000008F
:100020000000000000000000000000009B0100082C
:1000300075020008000000009F010008A1010008EF
:10004000A3010008A3010008A3010008A301000800
:10005000A3010008A3010008A3010008A3010008F0
:10006000A3010008A3010008A3010008A3010008E0
:10007000A3010008A3010008A3010008A3010008D0
:10008000A3010008A3010008A3010008A3010008C0
:10009000A3010008A3010008A3010008A3010008B0
:1000A000A3010008A3010008A3010008A3010008A0
:1000B0000D080008A3010008A3010008A30100081F
:1000C000A3010008A3010008A3010008A301000880
:1000D000A30100080D0A0008A3010008A3010008FD
:1000E000A3010008A3010008A3010008A301000860
:1000F000A3010008A3010008A301000800000000FC
:1001000000000000A3010008A30100080000000097
:10011000A3010008A3010008000000000000000087
:10012000A3010008A3010008A3010008A30100081F
:1001300000000000000000000000000000000000BF
:1001400000000000000000000000000000000000AF
:10015000A3010008A3010008A3010008A3010008EF
:10016000A3010008A3010008A3010008A3010008DF
:10017000DFF810D000F06AF800480047F50C0008DE
:10018000AFF30080A00400200648804706480047DF
:10019000FEE7FEE7FEE7FEE7FEE7FEE7FEE7FEE737
:1001A000FEE7FEE70D070008710100082DE9F05F8A
:1001B0000546002092469B468846064681464024D6
:1001C0001BE0284641464746224600F02FF853469A
:1001D0005A46C01A914110D311461846224600F0E3
:1001E00016F82D1A67EB01084F4622460120002120
:1001F00000F00DF817EB00094E41201EA4F1010498
:10020000DFDC484631462A464346BDE8F09F202AB7
:1002100004DB203A00FA02F1002070479140C2F15D
:10022000200320FA03F3194390407047202A04DB8F
:10023000203A21FA02F00021704721FA02F3D0405F
:10024000C2F120029140084319467047064C074D01
:1002500006E0E06840F0010394E807009847103496
:10026000AC42F6D3FFF788FF200D0008400D0008D0
:1002700000BFFEE77047000010B5042000F031FA1F
:10028000074800680749B0FBF1F0074908600846D5
:1002900000684FF47A7148430449086010BD0000BB
:1002A0000000002040420F00140000201800002031
:1002B00008B5684600F0B9F84FF40070ADF80000DA
:1002C00002208DF8020018208DF8030069460F48BF
:1002D00000F020F84FF48060ADF8000002208DF8A7
:1002E000020004208DF803006946084800F012F867
:1002F0002020ADF8000002208DF8020010208DF8BB
:1003000003006946024800F005F808BD00080140F6
:10031000001001402DE9F041024600250026002092
:1003200000230024002791F803C00CF00F0591F87A
:1003300003C00CF0100CBCF1000F03D091F802C008
:100340004CEA050591F800C0BCF1000F31D01468EB
:1003500000202BE04FF0010C0CFA00F3B1F800C0C4
:100360000CEA03069E4220D183004FF00F0C0CFADA
:1003700003F7BC4305FA03FC4CEA040491F803C0FC
:10038000BCF1280F06D14FF0010C0CFA00FCC2F8AA
:1003900014C00AE091F803C0BCF1480F05D14FF03A
:1003A000010C0CFA00FCC2F810C0401C0828D1D384
:1003B0001460B1F800C0BCF1FF0F34DD54680020B8
:1003C0002EE000F1080C4FF0010808FA0CF3B1F828
:1003D00000C00CEA03069E4221D183004FF00F0CAF
:1003E0000CFA03F7BC4305FA03FC4CEA040491F849
:1003F00003C0BCF1280F05D100F1080C08FA0CF875
:10040000C2F8148091F803C0BCF1480F07D100F185
:10041000080C4FF0010808FA0CF8C2F81080401CD4
:100420000828CED35460BDE8F0814FF6FF710180FB
:10043000022181700421C170704700BFFEE700BF38
:10044000FEE7704708B54FF4E06000F055F825204E
:100450008DF8000000208DF801008DF802000120C9
:100460008DF80300684600F00FF81C208DF800009E
:1004700001208DF801008DF802008DF80300684618
:1004800000F002F808BD000070B5002100230F2223
:10049000C47804B3154C246804F4E064C4F5E06443
:1004A000210AC1F10403CA40447804FA03F18478B4
:1004B0001440214309010E4C0678A155047804F03C
:1004C0001F050124AC4005786D11AD0005F1E02554
:1004D000C5F8004109E0047804F01F050124AC4090
:1004E000044D0678761145F8264070BD0CED00E00D
:1004F00000E400E080E100E002490143024A1160AB
:10050000704700000000FA050CED00E029B1064A32
:10051000D2690243044BDA6104E0034AD2698243A0
:10052000014BDA61704700000010024029B1064A11
:1005300092690243044B9A6104E0034A9269824340
:10054000014B9A61704700000010024010B5012174
:100550000420FFF7EBFF01211020FFF7E7FF012147
:100560000846FFF7E3FF01218803FFF7DFFF0121C2
:100570000846FFF7CBFF10BDF0B500220021002494
:1005800000234F4D6D6805F00C0222B1042A12D0F1
:10059000082A4BD112E04A4D2D6B05F000753DB194
:1005A000474D6D6D05F4007515B1464D056001E0D0
:1005B000454D05603DE0444D05603AE0404D6D68B5
:1005C00005F480343E4D6D68404E05EA060101F0A9
:1005D000C04535B901F47015B5F5701F01D002257D
:1005E00000E0012501F0C046C1F3834747EA5666A3
:1005F000A9191CB9364D4D4305600BE0304D6D68AF
:1006000005F400351DB1324D4D43056002E02E4D1D
:100610004D4305602A4D6D6805F000452DB92D4EFE
:100620000568B54201D93546056002E0264D0560F2
:1006300000BF00BF224D6D68C5F30212204D6D68EA
:1006400005F0800515B1244DAD5C00E000252B467A
:100650000568DD4045601A4D6D68C5F30122184DEF
:100660006D6805F4806515B11B4DAD5C00E000259B
:100670002B464568DD408560114D6D68C5F3C1228C
:100680000F4D6D6805F4005515B1134DAD5C00E0DC
:1006900000252B464568DD40C560094D6D68C5F3F2
:1006A0008132074D6D6805F080550DB142F00402AE
:1006B0000A4DAB5CC568B5FBF3F50561F0BD000004
:1006C00000100240006CDC0200127A0000003C6066
:1006D00000093D0000A24A04100D0008180D000892
:1006E0007047042808D14FF0E021096941F0040166
:1006F0004FF0E022116107E04FF0E021096921F09D
:1007000004014FF0E02211617047000010B51A4853
:10071000006840F47000184908601848006840F00C
:100720000100164908600846406815490840134909
:1007300048600846006813490840104908600846A8
:10074000006820F480200860084640680E49084090
:100750000A4948600846006B0C490840074908638D
:100760004FF41F008860FFF7BBFF4FF000600249A5
:100770008039086010BD000088ED00E000100240E4
:100780000C00FFE8FFFFF6FEFFFF001700FFFEFE74
:1007900030B589B04FF47A7400251B4800682146B3
:1007A000B0FBF1F0401E85B205A800F0FBF8204632
:1007B0000790ADF814500020ADF82000069005A970
:1007C000E00600F0B5F8684600F0A7F82020ADF884
:1007D00000000120ADF8020002940020ADF80C00EA
:1007E0006946E00600F052F80021E00600F08CF8BF
:1007F00001220221480700F03FF80121880700F09C
:100800001EF809B030BD00000000002010B5022124
:10081000480700F020F858B10221480700F00CF812
:1008200000F03AFA0348C06880F020000149C8602F
:1008300010BD000000100140CA430282704721B180
:10084000028842F00102028004E002884FF6FE7343
:100850001A400280704730B5024600200023002471
:10086000158A05EA0103958905EA010413B10CB163
:10087000012000E0002030BD1AB183890B43838141
:1008800002E083898B4383817047000070B50024A8
:1008900000220023058C4FF6FE7635400584028C3D
:1008A0008388048B4FF68F752C40B51E2C400D8825
:1008B0002C43751E2A408D892A434D882A43104DAA
:1008C000A84202D00F4DA84213D14FF6F7752A4027
:1008D000CD892A434FF6FB752A408D882A434FF66F
:1008E000FF652B404FF6FF552B400D8A2B434D8A59
:1008F0002B43838004838D684563028470BD0000B0
:10090000002C0140003401400A460021018B4FF6C3
:10091000F773194011430183704700210180418022
:10092000818081608181C1810182418270470000A4
:1009300000220288164B98420ED0B0F1804F0BD0A7
:10094000144B984208D0144B984205D0134B984250
:1009500002D0134B984205D14FF68F731A408B8803
:1009600013439AB24FF6FF431A408B891A43028011
:100970008B68C3620B880385054B984202D0074BF6
:10098000984201D18B7B038601238382704700004C
:10099000002C014000080040000C004000340140E1
:1009A000000400404FF6FF718160002101808181C9
:1009B00041608173704700001FB5684600F04FF931
:1009C0004FF4E13000900020ADF80400ADF80600CF
:1009D000ADF80800ADF80C000C20ADF80A0069462F
:1009E000094800F0BFF8012240F22551064800F006
:1009F00093F8012240F22771034800F08DF801219D
:100A0000014800F046F81FBD0038014010B540F223
:100A10002551164800F056F8D8B140F22551134838
:100A200000F028F8114800F011F9C1B2104890F810
:100A3000812090F88100401C0D4B83F881001846FE
:100A4000815490F88100802803DB0020194681F84A
:100A5000810040F22771054800F034F828B10022E7
:100A600040F22771014800F057F810BD00380140EE
:100A70001C00002010B50022002340F66A14A14299
:100A800000D100BF0A1201249440A3B2DC430480C9
:100A900010BD21B1828942F40052828104E0828932
:100AA0004DF6FF731A408281704702460020B1F56F
:100AB000007F00D100BF13880B400BB1012000E084
:100AC0000020704770B50246002400230025002056
:100AD00040F66A16B14200D100BFC1F3421501F0E1
:100AE0001F03012606FA03F3012D02D19689334034
:100AF00006E0022D02D1168A334001E0968A334087
:100B00000C12012606FA04F41688344013B10CB115
:100B1000012000E0002070BDF0B50346002400264F
:100B20000025002040F66A17B94200D100BF1846E0
:100B3000C1F3421401F01F06012707FA06F5012C44
:100B400001D10C3004E0022C01D1103000E014304F
:100B50001AB107682F43076002E00768AF430760D8
:100B6000F0BD00002DE9F04F89B005460E46002487
:100B700000200790834682468146B08900B100BFBD
:100B8000A9462C8A4CF6FF700440F08804432C825E
:100B9000AC894EF6F3100440B0883189084371895E
:100BA00008430443AC81AC8A4FF6FF400440B0894F
:100BB0000443AC8202A8FFF7DFFC2348814502D141
:100BC0000598079001E0049807904FF47A71079810
:100BD000A0FB01700146102200233846FFF7E6FA19
:100BE000CDE9000137683A460023FFF7DFFA0446F3
:100BF0004FF47A70B4FBF0FBB4FBF0F100FB114052
:100C00004FEA001A4FF47A70BAFBF0F100FB11A022
:100C1000B0F5FA7F04D24FF47A70BAFBF0FA0CE028
:100C20004FF47A70BAFBF0F000F1010ABAF1100F3C
:100C300003D34FF0000A0BF1010B4AEA0B10288195
:100C400009B0BDE8F08F00000038014001468888F7
:100C5000C0F308007047C1F30802828070474FF468
:100C60001651016000218180C18001810C214181E8
:100C700000218181704700BFFEE702E008C8121F13
:100C800008C1002AFAD170477047002001E001C175
:100C9000121F002AFBD1704710B51DE0134890F8D1
:100CA000802090F88000401C104B83F8800018468C
:100CB000815C0F48FFF7CFFF00BF80210C48FFF792
:100CC000F4FE0028F9D0094890F88000802803DB62
:100CD0000020064981F88000044890F8800003490C
:100CE00091F881108842D9D110BD00001C0000206D
:100CF00000380140FFF72AFCFFF7DAFAFFF75CFE45
:100D0000FFF746FDFFF79EFBFFF7B6FA00BFFEE7D1
:100D1000010203040607080902040608020C081071
:100D2000400D0008000000201C0000007A0C0008A4
:100D30005C0D00081C000020840400008A0C0008E0
:100D400000127A000000000000000000010203040D
:0C0D500006070809000000000000000079
:04000005080001717D
:00000001FF
